{
  "_format": "hh-sol-artifact-1",
  "contractName": "Schedule",
  "sourceName": "contracts/Schedule.sol",
  "abi": [
    {
      "anonymous": false,
      "inputs": [
        {
          "indexed": false,
          "internalType": "uint256",
          "name": "id",
          "type": "uint256"
        },
        {
          "indexed": false,
          "internalType": "uint256",
          "name": "data",
          "type": "uint256"
        },
        {
          "indexed": false,
          "internalType": "string",
          "name": "content",
          "type": "string"
        },
        {
          "indexed": false,
          "internalType": "string",
          "name": "author",
          "type": "string"
        },
        {
          "indexed": false,
          "internalType": "bool",
          "name": "done",
          "type": "bool"
        }
      ],
      "name": "TaskCreated",
      "type": "event"
    },
    {
      "anonymous": false,
      "inputs": [
        {
          "indexed": false,
          "internalType": "uint256",
          "name": "id",
          "type": "uint256"
        },
        {
          "indexed": false,
          "internalType": "bool",
          "name": "done",
          "type": "bool"
        },
        {
          "indexed": false,
          "internalType": "uint256",
          "name": "date",
          "type": "uint256"
        }
      ],
      "name": "TaskStatusToggled",
      "type": "event"
    },
    {
      "inputs": [
        {
          "internalType": "string",
          "name": "_content",
          "type": "string"
        },
        {
          "internalType": "string",
          "name": "_author",
          "type": "string"
        }
      ],
      "name": "createTask",
      "outputs": [
        {
          "internalType": "bool",
          "name": "",
          "type": "bool"
        }
      ],
      "stateMutability": "nonpayable",
      "type": "function"
    },
    {
      "inputs": [],
      "name": "getTask",
      "outputs": [
        {
          "components": [
            {
              "internalType": "uint256",
              "name": "id",
              "type": "uint256"
            },
            {
              "internalType": "uint256",
              "name": "data",
              "type": "uint256"
            },
            {
              "internalType": "string",
              "name": "content",
              "type": "string"
            },
            {
              "internalType": "string",
              "name": "author",
              "type": "string"
            },
            {
              "internalType": "bool",
              "name": "done",
              "type": "bool"
            },
            {
              "internalType": "bool",
              "name": "isCreated",
              "type": "bool"
            },
            {
              "internalType": "uint256",
              "name": "dateComplete",
              "type": "uint256"
            }
          ],
          "internalType": "struct Schedule.Task[]",
          "name": "",
          "type": "tuple[]"
        }
      ],
      "stateMutability": "view",
      "type": "function"
    },
    {
      "inputs": [
        {
          "internalType": "uint256",
          "name": "",
          "type": "uint256"
        }
      ],
      "name": "tasks",
      "outputs": [
        {
          "internalType": "uint256",
          "name": "id",
          "type": "uint256"
        },
        {
          "internalType": "uint256",
          "name": "data",
          "type": "uint256"
        },
        {
          "internalType": "string",
          "name": "content",
          "type": "string"
        },
        {
          "internalType": "string",
          "name": "author",
          "type": "string"
        },
        {
          "internalType": "bool",
          "name": "done",
          "type": "bool"
        },
        {
          "internalType": "bool",
          "name": "isCreated",
          "type": "bool"
        },
        {
          "internalType": "uint256",
          "name": "dateComplete",
          "type": "uint256"
        }
      ],
      "stateMutability": "view",
      "type": "function"
    },
    {
      "inputs": [
        {
          "internalType": "uint256",
          "name": "id",
          "type": "uint256"
        }
      ],
      "name": "toggleDone",
      "outputs": [],
      "stateMutability": "nonpayable",
      "type": "function"
    }
  ],
  "bytecode": "0x608060405234801561001057600080fd5b50610f9a806100206000396000f3fe608060405234801561001057600080fd5b506004361061004c5760003560e01c8063292a4585146100515780638d97767214610081578063a31662d2146100b7578063d81ef739146100d5575b600080fd5b61006b60048036038101906100669190610944565b6100f1565b60405161007891906109d7565b60405180910390f35b61009b60048036038101906100969190610a28565b610242565b6040516100ae9796959493929190610aec565b60405180910390f35b6100bf6103ae565b6040516100cc9190610d36565b60405180910390f35b6100ef60048036038101906100ea9190610a28565b6105e5565b005b60006040518060e0016040528060015481526020014281526020018481526020018381526020016000151581526020016001151581526020016000815250600080600154815260200190815260200160002060008201518160000155602082015181600101556040820151816002019080519060200190610173929190610706565b506060820151816003019080519060200190610190929190610706565b5060808201518160040160006101000a81548160ff02191690831515021790555060a08201518160040160016101000a81548160ff02191690831515021790555060c082015181600501559050507fb322bdd3250d405f7845d27fa1f0753f8f7e18e40886bc254b89005c3e9c03246001544285856000604051610218959493929190610d58565b60405180910390a16001600081548092919061023390610de8565b91905055506001905092915050565b600060205280600052604060002060009150905080600001549080600101549080600201805461027190610e60565b80601f016020809104026020016040519081016040528092919081815260200182805461029d90610e60565b80156102ea5780601f106102bf576101008083540402835291602001916102ea565b820191906000526020600020905b8154815290600101906020018083116102cd57829003601f168201915b5050505050908060030180546102ff90610e60565b80601f016020809104026020016040519081016040528092919081815260200182805461032b90610e60565b80156103785780601f1061034d57610100808354040283529160200191610378565b820191906000526020600020905b81548152906001019060200180831161035b57829003601f168201915b5050505050908060040160009054906101000a900460ff16908060040160019054906101000a900460ff16908060050154905087565b6060600060015467ffffffffffffffff8111156103ce576103cd610819565b5b60405190808252806020026020018201604052801561040757816020015b6103f461078c565b8152602001906001900390816103ec5790505b50905060005b6001548110156105dd576000808281526020019081526020016000206040518060e0016040529081600082015481526020016001820154815260200160028201805461045890610e60565b80601f016020809104026020016040519081016040528092919081815260200182805461048490610e60565b80156104d15780601f106104a6576101008083540402835291602001916104d1565b820191906000526020600020905b8154815290600101906020018083116104b457829003601f168201915b505050505081526020016003820180546104ea90610e60565b80601f016020809104026020016040519081016040528092919081815260200182805461051690610e60565b80156105635780601f1061053857610100808354040283529160200191610563565b820191906000526020600020905b81548152906001019060200180831161054657829003601f168201915b505050505081526020016004820160009054906101000a900460ff161515151581526020016004820160019054906101000a900460ff161515151581526020016005820154815250508282815181106105bf576105be610e92565b5b602002602001018190525080806105d590610de8565b91505061040d565b508091505090565b60008082815260200190815260200160002060040160019054906101000a900460ff16610647576040517f08c379a000000000000000000000000000000000000000000000000000000000815260040161063e90610f0d565b60405180910390fd5b600080600083815260200190815260200160002090508060040160009054906101000a900460ff16158160040160006101000a81548160ff0219169083151502179055508060040160009054906101000a900460ff166106a85760006106aa565b425b81600501819055507fcb1ceae718a6ae11d5daf00e292e318717e0acf2d326ed670df0e5ff67ba5000828260040160009054906101000a900460ff1683600501546040516106fa93929190610f2d565b60405180910390a15050565b82805461071290610e60565b90600052602060002090601f016020900481019282610734576000855561077b565b82601f1061074d57805160ff191683800117855561077b565b8280016001018555821561077b579182015b8281111561077a57825182559160200191906001019061075f565b5b50905061078891906107cd565b5090565b6040518060e0016040528060008152602001600081526020016060815260200160608152602001600015158152602001600015158152602001600081525090565b5b808211156107e65760008160009055506001016107ce565b5090565b6000604051905090565b600080fd5b600080fd5b600080fd5b600080fd5b6000601f19601f8301169050919050565b7f4e487b7100000000000000000000000000000000000000000000000000000000600052604160045260246000fd5b61085182610808565b810181811067ffffffffffffffff821117156108705761086f610819565b5b80604052505050565b60006108836107ea565b905061088f8282610848565b919050565b600067ffffffffffffffff8211156108af576108ae610819565b5b6108b882610808565b9050602081019050919050565b82818337600083830152505050565b60006108e76108e284610894565b610879565b90508281526020810184848401111561090357610902610803565b5b61090e8482856108c5565b509392505050565b600082601f83011261092b5761092a6107fe565b5b813561093b8482602086016108d4565b91505092915050565b6000806040838503121561095b5761095a6107f4565b5b600083013567ffffffffffffffff811115610979576109786107f9565b5b61098585828601610916565b925050602083013567ffffffffffffffff8111156109a6576109a56107f9565b5b6109b285828601610916565b9150509250929050565b60008115159050919050565b6109d1816109bc565b82525050565b60006020820190506109ec60008301846109c8565b92915050565b6000819050919050565b610a05816109f2565b8114610a1057600080fd5b50565b600081359050610a22816109fc565b92915050565b600060208284031215610a3e57610a3d6107f4565b5b6000610a4c84828501610a13565b91505092915050565b610a5e816109f2565b82525050565b600081519050919050565b600082825260208201905092915050565b60005b83811015610a9e578082015181840152602081019050610a83565b83811115610aad576000848401525b50505050565b6000610abe82610a64565b610ac88185610a6f565b9350610ad8818560208601610a80565b610ae181610808565b840191505092915050565b600060e082019050610b01600083018a610a55565b610b0e6020830189610a55565b8181036040830152610b208188610ab3565b90508181036060830152610b348187610ab3565b9050610b4360808301866109c8565b610b5060a08301856109c8565b610b5d60c0830184610a55565b98975050505050505050565b600081519050919050565b600082825260208201905092915050565b6000819050602082019050919050565b610b9e816109f2565b82525050565b600082825260208201905092915050565b6000610bc082610a64565b610bca8185610ba4565b9350610bda818560208601610a80565b610be381610808565b840191505092915050565b610bf7816109bc565b82525050565b600060e083016000830151610c156000860182610b95565b506020830151610c286020860182610b95565b5060408301518482036040860152610c408282610bb5565b91505060608301518482036060860152610c5a8282610bb5565b9150506080830151610c6f6080860182610bee565b5060a0830151610c8260a0860182610bee565b5060c0830151610c9560c0860182610b95565b508091505092915050565b6000610cac8383610bfd565b905092915050565b6000602082019050919050565b6000610ccc82610b69565b610cd68185610b74565b935083602082028501610ce885610b85565b8060005b85811015610d245784840389528151610d058582610ca0565b9450610d1083610cb4565b925060208a01995050600181019050610cec565b50829750879550505050505092915050565b60006020820190508181036000830152610d508184610cc1565b905092915050565b600060a082019050610d6d6000830188610a55565b610d7a6020830187610a55565b8181036040830152610d8c8186610ab3565b90508181036060830152610da08185610ab3565b9050610daf60808301846109c8565b9695505050505050565b7f4e487b7100000000000000000000000000000000000000000000000000000000600052601160045260246000fd5b6000610df3826109f2565b91507fffffffffffffffffffffffffffffffffffffffffffffffffffffffffffffffff821415610e2657610e25610db9565b5b600182019050919050565b7f4e487b7100000000000000000000000000000000000000000000000000000000600052602260045260246000fd5b60006002820490506001821680610e7857607f821691505b60208210811415610e8c57610e8b610e31565b5b50919050565b7f4e487b7100000000000000000000000000000000000000000000000000000000600052603260045260246000fd5b7f5461736b20646f6573206e6f7420657869737400000000000000000000000000600082015250565b6000610ef7601383610a6f565b9150610f0282610ec1565b602082019050919050565b60006020820190508181036000830152610f2681610eea565b9050919050565b6000606082019050610f426000830186610a55565b610f4f60208301856109c8565b610f5c6040830184610a55565b94935050505056fea2646970667358221220f327c4f3ef91c14936af21f9e9af1c248783e7bd754eabff8333a3757a41743064736f6c63430008090033",
  "linkReferences": {},
  "deployedLinkReferences": {}
}